{"abi":[{"type":"constructor","inputs":[{"name":"_usdc","type":"address","internalType":"address"},{"name":"_oracleRegistry","type":"address","internalType":"address"},{"name":"_feeCollector","type":"address","internalType":"address"}],"stateMutability":"nonpayable"},{"type":"function","name":"BPS_DENOMINATOR","inputs":[],"outputs":[{"name":"","type":"uint256","internalType":"uint256"}],"stateMutability":"view"},{"type":"function","name":"MAX_TICK_DURATION","inputs":[],"outputs":[{"name":"","type":"uint256","internalType":"uint256"}],"stateMutability":"view"},{"type":"function","name":"MIN_DEPOSIT","inputs":[],"outputs":[{"name":"","type":"uint256","internalType":"uint256"}],"stateMutability":"view"},{"type":"function","name":"MIN_TICK_DURATION","inputs":[],"outputs":[{"name":"","type":"uint256","internalType":"uint256"}],"stateMutability":"view"},{"type":"function","name":"PROTOCOL_FEE_BPS","inputs":[],"outputs":[{"name":"","type":"uint256","internalType":"uint256"}],"stateMutability":"view"},{"type":"function","name":"USDC","inputs":[],"outputs":[{"name":"","type":"address","internalType":"contract IERC20"}],"stateMutability":"view"},{"type":"function","name":"accumulatedRealFees","inputs":[],"outputs":[{"name":"","type":"uint256","internalType":"uint256"}],"stateMutability":"view"},{"type":"function","name":"blsOracleRegistry","inputs":[],"outputs":[{"name":"","type":"address","internalType":"contract IOracleRegistry"}],"stateMutability":"view"},{"type":"function","name":"collectFees","inputs":[],"outputs":[],"stateMutability":"nonpayable"},{"type":"function","name":"createBatch","inputs":[{"name":"sourceId","type":"bytes32","internalType":"bytes32"},{"name":"configHash","type":"bytes32","internalType":"bytes32"},{"name":"tickDuration","type":"uint256","internalType":"uint256"},{"name":"lockOffset","type":"uint256","internalType":"uint256"},{"name":"blsSignature","type":"bytes","internalType":"bytes"},{"name":"referenceNonce","type":"uint256","internalType":"uint256"},{"name":"signersBitmask","type":"uint256","internalType":"uint256"}],"outputs":[{"name":"batchId","type":"uint256","internalType":"uint256"}],"stateMutability":"nonpayable"},{"type":"function","name":"currentTickId","inputs":[{"name":"batchId","type":"uint256","internalType":"uint256"}],"outputs":[{"name":"","type":"uint256","internalType":"uint256"}],"stateMutability":"view"},{"type":"function","name":"deregisterBot","inputs":[],"outputs":[],"stateMutability":"nonpayable"},{"type":"function","name":"feeCollector","inputs":[],"outputs":[{"name":"","type":"address","internalType":"address"}],"stateMutability":"view"},{"type":"function","name":"getAllActiveBots","inputs":[],"outputs":[{"name":"","type":"address[]","internalType":"address[]"},{"name":"","type":"tuple[]","internalType":"struct IVision.Bot[]","components":[{"name":"endpoint","type":"string","internalType":"string"},{"name":"pubkeyHash","type":"bytes32","internalType":"bytes32"},{"name":"registeredAt","type":"uint256","internalType":"uint256"},{"name":"isActive","type":"bool","internalType":"bool"}]}],"stateMutability":"view"},{"type":"function","name":"getBatch","inputs":[{"name":"batchId","type":"uint256","internalType":"uint256"}],"outputs":[{"name":"","type":"tuple","internalType":"struct IVision.Batch","components":[{"name":"creator","type":"address","internalType":"address"},{"name":"sourceId","type":"bytes32","internalType":"bytes32"},{"name":"configHash","type":"bytes32","internalType":"bytes32"},{"name":"tickDuration","type":"uint256","internalType":"uint256"},{"name":"lockOffset","type":"uint256","internalType":"uint256"},{"name":"createdAtTick","type":"uint256","internalType":"uint256"},{"name":"paused","type":"bool","internalType":"bool"},{"name":"settled","type":"bool","internalType":"bool"}]}],"stateMutability":"view"},{"type":"function","name":"getBatchIdBySourceId","inputs":[{"name":"sourceId","type":"bytes32","internalType":"bytes32"}],"outputs":[{"name":"","type":"uint256","internalType":"uint256"}],"stateMutability":"view"},{"type":"function","name":"getPosition","inputs":[{"name":"batchId","type":"uint256","internalType":"uint256"},{"name":"player","type":"address","internalType":"address"}],"outputs":[{"name":"","type":"tuple","internalType":"struct IVision.PlayerPosition","components":[{"name":"bitmapHash","type":"bytes32","internalType":"bytes32"},{"name":"configHash","type":"bytes32","internalType":"bytes32"},{"name":"joinTimestamp","type":"uint256","internalType":"uint256"},{"name":"totalDeposited","type":"uint256","internalType":"uint256"}]}],"stateMutability":"view"},{"type":"function","name":"joinBatchDirect","inputs":[{"name":"batchId","type":"uint256","internalType":"uint256"},{"name":"configHash","type":"bytes32","internalType":"bytes32"},{"name":"depositAmount","type":"uint256","internalType":"uint256"},{"name":"bitmapHash","type":"bytes32","internalType":"bytes32"}],"outputs":[],"stateMutability":"nonpayable"},{"type":"function","name":"latestBatchForSource","inputs":[{"name":"","type":"bytes32","internalType":"bytes32"}],"outputs":[{"name":"","type":"uint256","internalType":"uint256"}],"stateMutability":"view"},{"type":"function","name":"nextBatchId","inputs":[],"outputs":[{"name":"","type":"uint256","internalType":"uint256"}],"stateMutability":"view"},{"type":"function","name":"oracleRegistry","inputs":[],"outputs":[{"name":"","type":"address","internalType":"address"}],"stateMutability":"view"},{"type":"function","name":"pause","inputs":[{"name":"batchId","type":"uint256","internalType":"uint256"},{"name":"blsSignature","type":"bytes","internalType":"bytes"},{"name":"referenceNonce","type":"uint256","internalType":"uint256"},{"name":"signersBitmask","type":"uint256","internalType":"uint256"}],"outputs":[],"stateMutability":"nonpayable"},{"type":"function","name":"registerBot","inputs":[{"name":"endpoint","type":"string","internalType":"string"},{"name":"pubkeyHash","type":"bytes32","internalType":"bytes32"}],"outputs":[],"stateMutability":"nonpayable"},{"type":"function","name":"settleBatch","inputs":[{"name":"batchId","type":"uint256","internalType":"uint256"},{"name":"players","type":"address[]","internalType":"address[]"},{"name":"payouts","type":"uint256[]","internalType":"uint256[]"},{"name":"blsSignature","type":"bytes","internalType":"bytes"},{"name":"referenceNonce","type":"uint256","internalType":"uint256"},{"name":"signersBitmask","type":"uint256","internalType":"uint256"}],"outputs":[],"stateMutability":"nonpayable"},{"type":"function","name":"unpause","inputs":[{"name":"batchId","type":"uint256","internalType":"uint256"},{"name":"blsSignature","type":"bytes","internalType":"bytes"},{"name":"referenceNonce","type":"uint256","internalType":"uint256"},{"name":"signersBitmask","type":"uint256","internalType":"uint256"}],"outputs":[],"stateMutability":"nonpayable"},{"type":"function","name":"updateBitmap","inputs":[{"name":"batchId","type":"uint256","internalType":"uint256"},{"name":"configHash","type":"bytes32","internalType":"bytes32"},{"name":"newBitmapHash","type":"bytes32","internalType":"bytes32"}],"outputs":[],"stateMutability":"nonpayable"},{"type":"function","name":"updateFeeCollector","inputs":[{"name":"newCollector","type":"address","internalType":"address"},{"name":"blsSignature","type":"bytes","internalType":"bytes"},{"name":"referenceNonce","type":"uint256","internalType":"uint256"},{"name":"signersBitmask","type":"uint256","internalType":"uint256"}],"outputs":[],"stateMutability":"nonpayable"},{"type":"event","name":"BatchCreated","inputs":[{"name":"batchId","type":"uint256","indexed":true,"internalType":"uint256"},{"name":"sourceId","type":"bytes32","indexed":true,"internalType":"bytes32"},{"name":"creator","type":"address","indexed":true,"internalType":"address"},{"name":"configHash","type":"bytes32","indexed":false,"internalType":"bytes32"},{"name":"tickDuration","type":"uint256","indexed":false,"internalType":"uint256"},{"name":"lockOffset","type":"uint256","indexed":false,"internalType":"uint256"}],"anonymous":false},{"type":"event","name":"BatchPausedEvent","inputs":[{"name":"batchId","type":"uint256","indexed":true,"internalType":"uint256"}],"anonymous":false},{"type":"event","name":"BatchSettled","inputs":[{"name":"batchId","type":"uint256","indexed":true,"internalType":"uint256"},{"name":"playerCount","type":"uint256","indexed":false,"internalType":"uint256"}],"anonymous":false},{"type":"event","name":"BatchUnpaused","inputs":[{"name":"batchId","type":"uint256","indexed":true,"internalType":"uint256"}],"anonymous":false},{"type":"event","name":"BitmapUpdated","inputs":[{"name":"batchId","type":"uint256","indexed":true,"internalType":"uint256"},{"name":"player","type":"address","indexed":true,"internalType":"address"},{"name":"newBitmapHash","type":"bytes32","indexed":false,"internalType":"bytes32"},{"name":"configHash","type":"bytes32","indexed":false,"internalType":"bytes32"}],"anonymous":false},{"type":"event","name":"BotDeregistered","inputs":[{"name":"bot","type":"address","indexed":true,"internalType":"address"}],"anonymous":false},{"type":"event","name":"BotRegistered","inputs":[{"name":"bot","type":"address","indexed":true,"internalType":"address"},{"name":"endpoint","type":"string","indexed":false,"internalType":"string"}],"anonymous":false},{"type":"event","name":"FeeCollected","inputs":[{"name":"amount","type":"uint256","indexed":false,"internalType":"uint256"}],"anonymous":false},{"type":"event","name":"FeeCollectorUpdated","inputs":[{"name":"oldCollector","type":"address","indexed":true,"internalType":"address"},{"name":"newCollector","type":"address","indexed":true,"internalType":"address"}],"anonymous":false},{"type":"event","name":"PlayerJoined","inputs":[{"name":"batchId","type":"uint256","indexed":true,"internalType":"uint256"},{"name":"player","type":"address","indexed":true,"internalType":"address"},{"name":"deposit","type":"uint256","indexed":false,"internalType":"uint256"},{"name":"bitmapHash","type":"bytes32","indexed":false,"internalType":"bytes32"},{"name":"configHash","type":"bytes32","indexed":false,"internalType":"bytes32"}],"anonymous":false},{"type":"event","name":"PlayerSettled","inputs":[{"name":"batchId","type":"uint256","indexed":true,"internalType":"uint256"},{"name":"player","type":"address","indexed":true,"internalType":"address"},{"name":"payout","type":"uint256","indexed":false,"internalType":"uint256"},{"name":"fee","type":"uint256","indexed":false,"internalType":"uint256"}],"anonymous":false},{"type":"error","name":"AlreadyJoined","inputs":[]},{"type":"error","name":"BLSVerifier__BelowThreshold","inputs":[]},{"type":"error","name":"BLSVerifier__BitmaskInvalid","inputs":[]},{"type":"error","name":"BLSVerifier__InvalidSignature","inputs":[]},{"type":"error","name":"BLSVerifier__NonceFuture","inputs":[]},{"type":"error","name":"BLSVerifier__NonceTooOld","inputs":[]},{"type":"error","name":"BLSVerifier__SnapshotTooOld","inputs":[]},{"type":"error","name":"BatchAlreadySettled","inputs":[]},{"type":"error","name":"BatchNotFound","inputs":[]},{"type":"error","name":"BatchPaused","inputs":[]},{"type":"error","name":"BotAlreadyRegistered","inputs":[]},{"type":"error","name":"BotNotRegistered","inputs":[]},{"type":"error","name":"DepositBelowMinimum","inputs":[]},{"type":"error","name":"E043_ZeroOracleRegistry","inputs":[]},{"type":"error","name":"InvalidArrayLength","inputs":[]},{"type":"error","name":"InvalidBLSSignature","inputs":[]},{"type":"error","name":"InvalidLockOffset","inputs":[]},{"type":"error","name":"InvalidTickDuration","inputs":[]},{"type":"error","name":"LockOffsetTooLarge","inputs":[]},{"type":"error","name":"NonZeroSum","inputs":[]},{"type":"error","name":"NotJoined","inputs":[]},{"type":"error","name":"ReentrancyGuardReentrantCall","inputs":[]},{"type":"error","name":"SafeERC20FailedOperation","inputs":[{"name":"token","type":"address","internalType":"address"}]},{"type":"error","name":"TickLocked","inputs":[]},{"type":"error","name":"Unauthorized","inputs":[]}],"bytecode":{"object":"0x60c034620000f257601f620021c938819003918201601f19168301916001600160401b03831184841017620000f757808492606094604052833981010312620000f2576200004d816200010d565b62000069604062000061602085016200010d565b93016200010d565b60016000556001600160a01b0391821660805260a0839052600680549183166001600160a01b03199283161790559116908115620000e05760015416176001556040516120a6908162000123823960805181818161039d0152818161072f01528181610db30152610f0a015260a051816112090152f35b604051631003b63b60e01b8152600490fd5b600080fd5b634e487b7160e01b600052604160045260246000fd5b51906001600160a01b0382168203620000f25756fe6080604052600436101561001257600080fd5b60003560e01c80631b2f83de1461179657806326121e09146116085780633c59e44914611325578063443db64e146112385780634bb93ab1146111f35780635ac44282146110e75780637549bc801461103c578063755f0b011461101e57806375be686914610f575780638462a7f814610f3957806389a3027114610ef45780639b2f172214610ec85780639c31b51114610e99578063a092fd4614610ce2578063a2b1c1a214610a5e578063a9ccd8a414610899578063b4b978c01461041e578063be37822814610402578063c415b95c146103d9578063c879657214610326578063d29f541d14610271578063e1a4521814610254578063e1e158a514610231578063e6085487146101ad578063eea8bba714610191578063fc6ba367146101735763ffc42ac51461014557600080fd5b3461016e57600036600319011261016e576001546040516001600160a01b039091168152602090f35b600080fd5b3461016e57600036600319011261016e576020600554604051908152f35b3461016e57600036600319011261016e576020604051603c8152f35b3461016e57602036600319011261016e5760043580600052600760205260406000205490811590816101fc575b506101ea57602090604051908152f35b604051632785786f60e21b8152600490fd5b6000805260036020527f3617319a054d772f909f7c479a2cebe5066e836a939412e32403c99029b92f005414159050826101da565b3461016e57600036600319011261016e57602060405167016345785d8a00008152f35b3461016e57600036600319011261016e5760206040516127108152f35b3461016e57604036600319011261016e576024356001600160a01b0381169081900361016e57600060606040516102a7816118d0565b82815282602082015282604082015201526004356000526004602052604060002090600052602052608060406000206040516102e2816118d0565b815491828252600181015460208301908152606060036002840154936040860194855201549301928352604051938452516020840152516040830152516060820152f35b3461016e57600036600319011261016e5761033f611ed3565b6006546001600160a01b0316338190036103c85760207fc472cb3a7a659a876494d66b3063145f279701771d6150b9329c31611ed6405c916005549060006005558180610397575b5050604051908152a16001600055005b6103c1917f0000000000000000000000000000000000000000000000000000000000000000611fc8565b8381610387565b6040516282b42960e81b8152600490fd5b3461016e57600036600319011261016e576006546040516001600160a01b039091168152602090f35b3461016e57600036600319011261016e57602060405160058152f35b3461016e5760c036600319011261016e576001600160401b0360243581811161016e5761044f9036906004016118a0565b919060443582811161016e576104699036906004016118a0565b909260643590811161016e57610483903690600401611838565b939061048d611ed3565b60043560005260036020526040600020946003860154156101ea5760ff600687015460081c166108875783870361080f57861561080f57604051918760608401604060208601525260808301928660005b8a811061085d575050808403601f190160408201528584526001600160fb1b03861161016e5761052560208261058c968960051b90818a8583013701038084520182611922565b602081519101209160405191602083019346855230604085015260a06060850152600c60c08501526b0a68aa8a8988abe8482a886960a31b60e0850152600435608085015260a084015260e0835261057c836118eb565b60a4359360843593519020611aa6565b60008060005b8781106107895750036107775760005b8581106105f15760068501805461ff001916610100179055604051868152600435907f0a0af9013a8d9968e4532086fbc7137cf11ee8b8f9d57c8e5e89589b4167390890602090a26001600055005b6004356000526004602052604060002060018060a01b0361061b610616848a89611a4a565b611a5a565b166000526020526040600020906003610635828686611a4a565b3592015480831160001461076e5761064d9083611945565b915b8260058102046005148315171561075857610674612710600560019502048092611945565b60043560005260046020526040600020848060a01b03610698610616868d8c611a4a565b166000526020526000600360408220828155828782015582600282015501556106c3826005546119a0565b6005558061071b575b838060a01b036106e0610616858c8b611a4a565b169160405191825260208201527fef63e36a8d3b128a7bcb35eb964917a1698849d211343d41978107d3054624d8604060043592a3016105a2565b6107538161072d610616868d8c611a4a565b7f0000000000000000000000000000000000000000000000000000000000000000611fc8565b6106cc565b634e487b7160e01b600052601160045260246000fd5b5060009161064f565b604051637b3ed4b360e01b8152600490fd5b919082151580610821575b61080f576004356000526004602052604060002060018060a01b036107bd610616868c8b611a4a565b166000526020526003604060002001549081156107fd576001916107f06107f6926107e9878a8a611a4a565b35906119a0565b936119a0565b9201610592565b60405163c394a43360e01b8152600490fd5b604051634ec4810560e11b8152600490fd5b506001600160a01b0380610839610616868c8b611a4a565b1690600019850185811161075857610616610855918c8b611a4a565b161015610794565b909485356001600160a01b038116919082900361016e5760208160019382935201960191016104de565b6040516327e386a760e21b8152600490fd5b3461016e5760e036600319011261016e576044356064356024356004356001600160401b0360843581811161016e576108d6903690600401611838565b603c87108015610a52575b610a405786861015610a2e5760405190602082019246845230604084015260e06060840152600c6101008401526101206b086a48a82a88abe8482a886960a31b818501528660808501528760a08501528960c08501528860e0850152835261014083019483861090861117610a18576109679460405260c4359360a43593519020611aa6565b600254926001840194858511610758576020956002558460005260038652600660406000203360018060a01b03198254161781558460018201558560028201558260038201558360048201556109bd8342611a6e565b60058201550160ff198154169055826000526007865284604060002055604051938452858401526040830152827f08b7df1b4c7eca933ad0387f95b9dc83168c99583ab8317cf68e5c89c4807dd960603394a4604051908152f35b634e487b7160e01b600052604160045260246000fd5b604051631ebff28560e01b8152600490fd5b60405163c483597160e01b8152600490fd5b5062093a8087116108e1565b3461016e57604036600319011261016e576001600160401b0360043581811161016e57610a8f903690600401611838565b610a9a929192611ed3565b336000526020906008825260ff600360406000200154168015610cd0575b610cbe5760405193610ac9856118d0565b838211610a1857601f1994604051610ae88588601f8701160182611922565b838152368484011161016e5783838683013760008585830101528152838101906024358252604081014281526060820192600197888552336000526008885260406000209351998a51918211610a1857610b4285546119ad565b601f8111610c83575b508890601f8311600114610c1e575081906003969798999a9b600092610c13575b505060001982871b1c1916908a1b1783555b5188830155516002820155019051151560ff8019835416911617905560095491600160401b831015610a1857610be4610bdd84877f9d9a9feadcb3910f929bbfb8411e8c78a4504cd692b7313c2a1be2e2b95470b19601600955611952565b3391611983565b60095433600052600a8552604060002055610c0b6040519283928684523396840191611a29565b0390a2600055005b015190508b80610b6c565b82169a85600052896000209b60005b818110610c6e5750918b9c91846003999a9b9c9d959410610c56575b505050811b018355610b7e565b015160001983891b60f8161c191690558b8080610c49565b838301518e559c8c019c928b01928b01610c2d565b610cae90866000528a600020601f850160051c8101918c8610610cb4575b601f0160051c01906119e7565b8b610b4b565b9091508190610ca1565b60405163558e872160e11b8152600490fd5b50600a82526040600020541515610ab8565b3461016e57608036600319011261016e57604435600435602435606435610d07611ed3565b610d1083611a8e565b82600052602060038152604060002060ff600682015416610e875760028491610d3887611ef6565b0154036101ea5783600052600481526040600020336000528152600360406000200154610e765767016345785d8a00008510610e64576040516323b872dd60e01b828201523360248201523060448201526064808201879052815260a08101906001600160401b03821181831017610a1857610dd7916040527f0000000000000000000000000000000000000000000000000000000000000000612008565b604051610de3816118d0565b8281526003828201858152604083014281526060840191898352886000526004865260406000203360005286526040600020945185555160018501555160028401555191015560405194855284015260408301527fafcae58140a7bab8d11da02652e500b03b1ca03b32e446e06db3d5f9e7a65c3d60603393a36001600055005b60405163c24b1b6160e01b8152600490fd5b604051621d934160e11b8152600490fd5b604051630e45327960e41b8152600490fd5b3461016e57602036600319011261016e576020610ec0600435610ebb81611a8e565b611f8e565b604051908152f35b3461016e57602036600319011261016e5760043560005260076020526020604060002054604051908152f35b3461016e57600036600319011261016e576040517f00000000000000000000000000000000000000000000000000000000000000006001600160a01b03168152602090f35b3461016e57600036600319011261016e576020600254604051908152f35b3461016e57606036600319011261016e576004356024359060443591816000526020600481526040600020336000528152600360406000200154156107fd57610f9f83611ef6565b826000526003815281600260406000200154036101ea57826000526004815260406000203360005281528360406000205582600052600481526040600020336000528152816001604060002001556040519384528301527fc98003b6bef2f3ea96d8e1e2d2fb4f9b94f9e933679ecbd04b7105567c91676760403393a3005b3461016e57600036600319011261016e57602060405162093a808152f35b3461016e576110a461104d36611865565b9261105c859695939293611a8e565b604051602081019046825230604082015260806060820152600560a082015264504155534560d81b60c082015287608082015260c0815261109c81611907565b519020611aa6565b8060005260036020526006604060002001600160ff198254161790557fac4538596cdaf95532119c54f799f687aa0402fa007278580ceaae8dc44c2b98600080a2005b3461016e57602036600319011261016e57600060e0604051611108816118eb565b8281528260208201528260408201528260608201528260808201528260a08201528260c082015201526004356000526003602052610100604060002060405190611151826118eb565b60018060a01b03815416918281526001820154916020820192835260028101546040830190815260038201546060840190815260048301549160808501928352600660058501549460a0870195865201549560ff60e060c0880197828a1615158952019760081c16151587526040519788525160208801525160408701525160608601525160808501525160a084015251151560c083015251151560e0820152f35b3461016e57600036600319011261016e576040517f00000000000000000000000000000000000000000000000000000000000000006001600160a01b03168152602090f35b3461016e57608036600319011261016e576004356001600160a01b038181169182900361016e576024356001600160401b03811161016e5761127e903690600401611838565b9083156103c8576112e99160405190602082019246845230604084015260806060840152601460a0840152732aa82220aa22afa322a2afa1a7a62622a1aa27a960611b60c084015286608084015260c083526112d983611907565b6064359360443593519020611aa6565b600680546001600160a01b031981168417909155167f5d16ad41baeb009cd23eb8f6c7cde5c2e0cd5acf4a33926ab488875c37c37f38600080a3005b3461016e57600036600319011261016e57600954611342816119fe565b906113506040519283611922565b80825261135c816119fe565b916020601f1980940160005b8181106115d357505060005b8381106114c557506040519080828581520180946009600052826000209060005b8181106114a857505050826113ab910383611922565b604051936040850192604086525180935260609260608601919060005b81811061148b57505050848103828601528351928382528282019083808660051b8501019601976000935b8685106114005788880389f35b9091929394959682828203018552868a519184608084518184528051809285015260005b8281106114735750509160019491601f85948a60a0956000878488010152878101518887015260408101516040870152015115158b850152011601019b019501950193989695949291906113f3565b81810186015185820160a001528c9589945001611424565b82516001600160a01b0316845292840192918401916001016113c8565b82546001600160a01b031684529284019260019283019201611395565b6114d181959395611952565b9054600391821b1c6001600160a01b0316600090815260088452604090819020905191906114fe836118d0565b604051815490600061150f836119ad565b8083526001938985821691826000146115b657505060011461157f575b50918161154360ff95936001999897950382611922565b855281015487850152600281015460408501520154161515606082015261156a8288611a15565b526115758187611a15565b5001939193611374565b8891508460005281600020906000915b8183106115a15750508201018161152c565b80548386018501528a9390920191850161158f565b60ff19168582015291151560051b8401909101915082905061152c565b82906040969496516115e4816118d0565b60006060808352818584015281604084015282015282828901015201949294611368565b3461016e57600036600319011261016e57611621611ed3565b3360005260206008815260ff60036040600020015416156117845733600052600a81526040600020546000199182820191808311610758576009548481019081116107585761169761167561169192611952565b90546001600160a01b039660039290921b1c8616928391611952565b90611983565b600052600a825260406000205560095491821561176e5760009360039301906116bf82611952565b9091825491861b1b19169055600955338352600a81528260408120556008815260408320906116ee82546119ad565b80611731575b50508260018201558260028201550155337fa1bb240a4b602da818262da32975edbf3e12c714ad03301622ed7cbbb16eac4a600080a26001600055005b601f81116001146117495750508281555b83806116f4565b611765601f86938585528420920160051c8201600183016119e7565b81835555611742565b634e487b7160e01b600052603160045260246000fd5b6040516373be802b60e01b8152600490fd5b3461016e576117f86117a736611865565b926117b6859695939293611a8e565b604051602081019046825230604082015260806060820152600760a082015266554e504155534560c81b60c082015287608082015260c0815261109c81611907565b806000526003602052600660406000200160ff1981541690557f56d43ef09ee3539bd9fe3aff4fec1a60244f6e627388dc537a3990af2b063753600080a2005b9181601f8401121561016e578235916001600160401b03831161016e576020838186019501011161016e57565b90608060031983011261016e5760043591602435906001600160401b03821161016e5761189491600401611838565b90916044359060643590565b9181601f8401121561016e578235916001600160401b03831161016e576020808501948460051b01011161016e57565b608081019081106001600160401b03821117610a1857604052565b61010081019081106001600160401b03821117610a1857604052565b60e081019081106001600160401b03821117610a1857604052565b601f909101601f19168101906001600160401b03821190821017610a1857604052565b9190820391821161075857565b60095481101561196d57600960005260206000200190600090565b634e487b7160e01b600052603260045260246000fd5b919060018060a01b038084549260031b9316831b921b1916179055565b9190820180921161075857565b90600182811c921680156119dd575b60208310146119c757565b634e487b7160e01b600052602260045260246000fd5b91607f16916119bc565b8181106119f2575050565b600081556001016119e7565b6001600160401b038111610a185760051b60200190565b805182101561196d5760209160051b010190565b908060209392818452848401376000828201840152601f01601f1916010190565b919081101561196d5760051b0190565b356001600160a01b038116810361016e5790565b8115611a78570490565b634e487b7160e01b600052601260045260246000fd5b6000526003602052600360406000200154156101ea57565b600180546001600160a01b0316959294939291908615611ec157604095865194859363bc8522b360e01b855260209384868c60049a8b915afa958615611eb657600096611e87575b506101009586811115611e805760ff198101818111611e6b575b8a10611e5b578911611e4b57895163e2624c5160e01b81528881019990995260249886818b818f5afa968715611e4057600097611d7b575b505060608601518043119081611d64575b50611d545760808601958651198816611d44578051600060018211611d0657505051905b8780916000925b611cbb57505010611cab57908391611bb88a5194859384936301f8850360e11b85528a8c8601528c850152606060448501526064840191611a29565b03818b5afa918215611ca057600092611c63575b505015611c53575190808203611be5575b505050505050565b853b1561016e5783600092838751988994859363043ea7b160e01b855218878401525af18015611c4857611c1b575b8080611bdd565b6001600160401b038411611c355750505238808080611c14565b604190634e487b7160e01b600052526000fd5b83513d6000823e3d90fd5b845163042aa35560e21b81528390fd5b81813d8311611c99575b611c778183611922565b81010312611c955751908115158203611c9257503880611bcc565b80fd5b5080fd5b503d611c6d565b87513d6000823e3d90fd5b88516302cfbe5560e41b81528790fd5b60001992909183810190808211611cf25716928114611cde578101919081611b7c565b8b60118c634e487b7160e01b600052526000fd5b8d60118e634e487b7160e01b600052526000fd5b9080925060011b9180830460021490151715611d325760028201809211611d3257506003900490611b75565b634e487b7160e01b815260118a528a90fd5b8a51639519cecf60e01b81528990fd5b8951630ce4988960e31b81528890fd5b620151809150611d749043611945565b1138611b51565b809792973d8211611e39575b611d918184611922565b82019082820312611e35578b519260a084016001600160401b03811185821017611e23578d5282518452878301518885015281605f84011215611c92578c5190611dda826118d0565b819060c08501938411611c925750888e8501915b848310611e1357505050838d015251606083015260e001516080820152943880611b40565b82518152918101918a9101611dee565b634e487b7160e01b825260418c528c82fd5b8280fd5b503d611d87565b8b513d6000823e3d90fd5b89516370c0f2cb60e11b81528890fd5b8a5163946df10d60e01b81528990fd5b60118a634e487b7160e01b6000525260246000fd5b6000611b08565b90958582813d8311611eaf575b611e9e8183611922565b81010312611c925750519438611aee565b503d611e94565b8a513d6000823e3d90fd5b604051631003b63b60e01b8152600490fd5b600260005414611ee4576002600055565b604051633ee5aeb560e01b8152600490fd5b9060009182526003602052604082206004810154908115611f885760030154611f1f8142611a6e565b60018101809111611f7457818102918183041490151715611f6057611f45929350611945565b421015611f4e57565b60405163a7d34f7760e01b8152600490fd5b634e487b7160e01b84526011600452602484fd5b634e487b7160e01b85526011600452602485fd5b50509050565b600052600360205260406000206005611fab600383015442611a6e565b910154808210611fc157611fbe91611945565b90565b5050600090565b60405163a9059cbb60e01b60208201526001600160a01b03909216602483015260448083019390935291815261200691612001826118d0565b612008565b565b906000602091828151910182855af115612064576000513d61205b57506001600160a01b0381163b155b6120395750565b604051635274afe760e01b81526001600160a01b039091166004820152602490fd5b60011415612032565b6040513d6000823e3d90fdfea2646970667358221220e8b6d0887d6cec80a11311932f52e19f6ca13fd46be7b61d888b6f6203342ace64736f6c63430008180033","linkReferences":{}},"methodIdentifiers":{"BPS_DENOMINATOR()":"e1a45218","MAX_TICK_DURATION()":"755f0b01","MIN_DEPOSIT()":"e1e158a5","MIN_TICK_DURATION()":"eea8bba7","PROTOCOL_FEE_BPS()":"be378228","USDC()":"89a30271","accumulatedRealFees()":"fc6ba367","blsOracleRegistry()":"ffc42ac5","collectFees()":"c8796572","createBatch(bytes32,bytes32,uint256,uint256,bytes,uint256,uint256)":"a9ccd8a4","currentTickId(uint256)":"9c31b511","deregisterBot()":"26121e09","feeCollector()":"c415b95c","getAllActiveBots()":"3c59e449","getBatch(uint256)":"5ac44282","getBatchIdBySourceId(bytes32)":"e6085487","getPosition(uint256,address)":"d29f541d","joinBatchDirect(uint256,bytes32,uint256,bytes32)":"a092fd46","latestBatchForSource(bytes32)":"9b2f1722","nextBatchId()":"8462a7f8","oracleRegistry()":"4bb93ab1","pause(uint256,bytes,uint256,uint256)":"7549bc80","registerBot(string,bytes32)":"a2b1c1a2","settleBatch(uint256,address[],uint256[],bytes,uint256,uint256)":"b4b978c0","unpause(uint256,bytes,uint256,uint256)":"1b2f83de","updateBitmap(uint256,bytes32,bytes32)":"75be6869","updateFeeCollector(address,bytes,uint256,uint256)":"443db64e"},"id":257}